:100000000C947B040C94BE0B0C94EB0B0C94A3048B
:100010000C94A3040C94A3040C94A3040C94A304C4
:100020000C94A3040C94A3040C94A3040C94A304B4
:100030000C94A3040C94A3040C94A3040C94A304A4
:100040000C94180C0C94A3040C94F60D0C94440E10
:100050000C94A3040C94A3040C94A3040C94A30484
:100060000C94A3040C94A3040007060000030241AF
:10007000D7000000000000000000000000000000A9
:10008000000000000000000000001F06100000003B
:10009000000000000B00210101000006000010001C
:1000A00000000000000000000020001F06101C13CC
:1000B000020000000000000000000000000000003E
:1000C00000000000000048039001FF001F061038E8
:1000D000FFFF02580A050000000000000050000069
:1000E00000000000000000000000000000050610F5
:1000F00054000000000000000000000000000000AC
:1001000000000000000000000000000000001F06CA
:100110002000040402020001280001001804040564
:100120000500022803010E0300002A041414001F16
:1001300006201C0800032A0001424C456475696EC4
:100140006F6D692E636F6D000000000000040400F5
:100150001F06203805050004280301020500012AB6
:100160000604030200052A0101000004040505003D
:10017000001F06205406280301020700042A060473
:10018000090800072A0401FFFFFFFF0000FFFF042A
:1001900004001F0620700202000828000101180454
:1001A00004101000092800012D6AD1C032005B0242
:1001B0001D68001F06208C12A301F06B8C04041331
:1001C00013000A2803013E0B002D6AD1C032005BE8
:1001D000021D68001F0620A812A30DD06B8C761498
:1001E0000605000BD00D02000000000046140302BB
:1001F000000C2902001F0620C40100000404101096
:10020000000D2800012D6AD1C032005B021D68126A
:10021000A3D11E6B8C001F0620E004041313000EF4
:100220002803013E0F002D6AD1C032005B021D6819
:1002300012A351256B8C001F0620FC7614050400C8
:100240000F2551020000000046140302001029028D
:1002500001000004041010001F06211800112800DE
:10026000012D6AD1C032005B021D6812A37ADA6BDD
:100270008C04041313001228001F06213403010C00
:1002800013002D6AD1C032005B021D6812A3CDABF2
:100290006B8C441014000013AB001F062150CD02DC
:1002A000000000000000000000000000000000004E
:1002B00000000000040413130014001F06216C2822
:1002C00003013015002D6AD1C032005B021D681297
:1002D000A310106B8C340014000015001F06218839
:1002E00010100200000000000000000000000000EC
:1002F000000000000000004614030200001F062159
:10030000A41629020100000404101000172800019F
:100310002D6AD1C032005B021D6812A341001F0686
:1003200021C0316B8C0404131300182803013E19FB
:10033000002D6AD1C032005B021D6812A318001F95
:100340000621DC166B8C74141400001916180200B8
:10035000000000000000000000000000000000009D
:100360001F0621F80000000046140302001A2902AB
:1003700001000006043A39001B2901015468652078
:10038000001F0622146E6F74696669636174696F79
:100390006E20617474726962757465732C20696E65
:1003A00063001F0622306C7564696E67206D65738B
:1003B0007361676520616E64207469746C652E04D6
:1003C0000410001F06224C10001C2800012D6AD1C9
:1003D000C032005B021D6812A3EBB16B8C040413E6
:1003E00013001D001F0622682803010E1E002D6A3F
:1003F000D1C032005B021D6812A3D0D16B8C4614B1
:100400000201001E001F062284D1D002000604262D
:1004100025001F29010154686520646576696365BC
:100420002049442067001F0622A06976656E20746B
:100430006F2074686520424C4520736C6176652E90
:10044000040413130020001F0622BC2803010C2102
:10045000002D6AD1C032005B021D6812A378576B71
:100460008C441014000021001F0622D85778020087
:10047000000000000000000000000000000000007C
:100480000000000604363500001F0622F422290170
:1004900001546865206D65737361676520746F2012
:1004A00062652073656E742066001F062310726FEC
:1004B0006D20616E6F7468657220424C4520736CCC
:1004C00061766520646576696365001F06232C2EBE
:1004D0000404131300232803013024002D6AD1C023
:1004E00032005B021D6812A34B456B001F062348B8
:1004F0008C340014000024454B0200000000000072
:10050000000000000000000000000000001F0623A3
:1005100064000046140302002529020100000604BD
:100520002A290026290101546865206461001F06FC
:100530002380746120746F2062652073656E74205F
:10054000746F20616E6F7468657220424C45001FA5
:1005500006239C20736C6176652E0404101000271E
:100560002800012D6AD1C032005B021D6812A30071
:100570001F0623B825116B8C0404131300282803CD
:10058000013E29002D6AD1C032005B021D6812A312
:10059000001F0623D406986B8C7614050400299856
:1005A00006020000000046140302002A290201008E
:1005B00000001F0623F006043A39002B29010154DC
:1005C000686520737065656420616E64206F726970
:1005D000656E001F06240C746174696F6E20696E6D
:1005E0002077686963682074686520766568696348
:1005F0006C6520001F0624286973206D6F76696E74
:10060000672E04041010002C2800012D6AD1C0327E
:10061000005B021D001F0624446812A313206B8C8C
:1006200004040202002D2800010A18040405050034
:100630002E28030102001F0624602F00242A06042E
:100640000B0A002F2A2401424C456475696E6F0025
:10065000000604080700001F06247C302904011945
:100660000000000100000404050500312803010218
:100670003200262A060405001F0624980400322AA8
:100680002601312E30000604080700332904011921
:100690000000000100000404001F0624B40505004A
:1006A00034280301023500292A06040B0A00352AE2
:1006B00029014B7974656C6162001F0624D07300B8
:1006C0000006040807003629040119000000010093
:1006D00000040405050037280301001F0624EC026E
:1006E0003800282A04040A0600382A2801526576B0
:1006F000312E300000000006040807001F06250800
:10070000003929040119000000010000040402025C
:10071000003A28000104180404050500001F0625FE
:10072000243B280301123C00072A16040201003C66
:100730002A07010046140302003D290201001F069A
:100740002540000006042322003E2901015468656B
:10075000207472616E736D697373696F6E2000151A
:1007600006255C7369676E616C20737472656E67D1
:1007700074682E200000000000000000000000004F
:100780001F0640002A000100800400030000D00D75
:1007900002048E04000B000C255102048E04000F8D
:1007A000001F06401C0010ABCD020408040013001B
:1007B0000010100200060400150016161802048E20
:1007C00004001F0640380019001AD1D00204880422
:1007D000001E000057780204080400210000454B69
:1007E0000200001D0640540604002400259806025D
:1007F000048E040029002A2A0701000204003C009C
:100800003D000000130650002D6AD1C032005B028B
:100810001D6812A300006B8C0000000000000000A7
:1008200000000000001F0660000000000000000043
:1008300000000000000000000000000000000000B8
:100840000000000000000806601C0000000000001E
:100850000000000000000000000000000000000098
:10086000000000000000000606F00003C60C0000B7
:100870000000000000000000000000000000000078
:1008800000000000000000436D642051756575652F
:100890002046756C6C00002C200000000000240035
:1008A00027002A0000000000250028002B0000007F
:1008B00000002300260029000404040404040404A6
:1008C00002020202020203030303030301020408FB
:1008D00010204080010204081020010204081020AA
:1008E00000000007000201000003040600000000F1
:1008F00000000000B00F11241FBECFEFD8E0DEBF14
:10090000CDBF11E0A0E0B1E0E6EAF3E202C005905D
:100910000D92AC39B107D9F715E0ACE9B1E001C0EF
:100920001D92A037B107E1F718E0C6EFD8E004C088
:100930002297FE010E94CD11C43FD107C9F70E9442
:1009400006100C94D1110C940000FB01DC0102C0D4
:1009500005900D9241505040D8F70895FB01DC01FD
:1009600002C001900D9241505040D8F7089581E0A7
:100970000E94AB0B81E06DE07AE040E050E00E9425
:10098000880B83B7817F83BF83B7816083BFE4E631
:10099000F0E08081816080838081806280838081BB
:1009A0008860808380818064808380818068808388
:1009B00083B7816083BF889583B78E7F83BFE4E66A
:1009C000F0E08081807180830895DF93CF9300D021
:1009D0000F92CDB7DEB7198281E08A8380919D01A5
:1009E0008B838EE495E0BE016F5F7F4F43E050E064
:1009F0000E9415100F900F900F90CF91DF910895E6
:100A00001F93DF93CF93CDB7DEB7A0970FB6F894BF
:100A1000DEBF0FBECDBF8EE495E00E94370F182FCA
:100A2000592F8EE495E060EA71E0412F0E94661133
:100A30008091A001803C09F05EC08091A101873BBC
:100A400069F1883B40F48C3131F18E3509F447C0AF
:100A5000882351F074C08D3C09F448C0813D81F079
:100A60008B3C09F06CC020C086E060E00E94A10DC4
:100A70008CEB91E00E94420B81E080939C015FC06F
:100A80000E94340B86E060E00E94A10D10929C0150
:100A900010929D0154C00E94E50451C086E060910F
:100AA000A2010E94A10D4BC0DE011196EBE6F1E020
:100AB00080E201900D928150E1F7E091A201F0E017
:100AC000EE0FFF1FEE0FFF1FEC0FFD1F4181528144
:100AD000638174818EE495E00E947F0E30C0809126
:100AE0009E0191E0892780939E0129C012508CEBD2
:100AF00091E061E01FC08A3D11F59091A101923112
:100B000028F49E3058F4892F875006C0963171F032
:100B10009631A8F0892F8A51823088F41250892F9B
:100B200062EA71E0412F0E948B0A09C012508CEBDF
:100B300091E066E142EA51E0212F0E94F30AA0967B
:100B40000FB6F894DEBF0FBECDBFCF91DF911F91DE
:100B50000895EF92FF920F931F93DF93CF93CDB73A
:100B6000DEB760970FB6F894DEBF0FBECDBFFC01B5
:100B7000EDB6FEB632813E3080F43C30E8F53630DA
:100B8000D9F0373020F4343009F0AEC015C0393018
:100B900011F13B3009F0A8C01EC03E3109F490C0ED
:100BA0003F3130F4832F8851823008F09DC04FC010
:100BB000303209F099C084C0398383E08A8383810D
:100BC0008B8384818C8385818D838EE495E0BE0147
:100BD0006F5F7F4F0EC03E8383E08F838381888762
:100BE0008481898785818A878EE495E0BE016A5F6A
:100BF0007F4F45E050E076C01DB70EB720812250F0
:100C0000422F50E0CA0102966DB77EB7681B790B80
:100C10000FB6F8947EBF0FBE6DBF6F5F7F4FADB74D
:100C2000BEB711963C93DB0111962C93DF01FB01BB
:100C300020E030E006C012968C91129781832F5FDE
:100C40003F4F1196319624173507ACF32AC01DB7D4
:100C50000EB720812250422F50E0CA0102966DB794
:100C60007EB7681B790B0FB6F8947EBF0FBE6DBFC1
:100C70006F5F7F4FADB7BEB711963C93DB01119606
:100C80002C93DF01FB0120E030E006C012968C912E
:100C9000129781832F5F3F4F1196319624173507A6
:100CA000ACF34E5F5F4F8EE495E00E941510812FEC
:100CB000902F9C010FB6F8943EBF0FBE2DBF14C0FD
:100CC0003B8784E08C8783818D8784818E878581B3
:100CD0008F878681888B8EE495E0BE01655F7F4FAC
:100CE00046E050E00E9415100FB6F894FEBE0FBE0D
:100CF000EDBE60960FB6F894DEBF0FBECDBFCF91AC
:100D0000DF911F910F91FF90EF9008950F931F9324
:100D1000CF93DF938091E001863809F44EC0873885
:100D200040F4843819F18538F0F5813809F059C05C
:100D300010C08A3809F45AC08B3820F4883809F07A
:100D400050C054C08C3809F447C08D3809F049C0F0
:100D50004DC08091E101823021F0833009F046C01E
:100D600034C08CEB91E00E94D40740C08091E20136
:100D70008823E1F1C0E0D0E005E010E086E0BE01AC
:100D80000E94020DC00FD11F209719F0CF3FD1054F
:100D900019F4109501951F4F6EE170E080E090E02E
:100DA0000E946E0CEBCF86E061E00E94A10D81E015
:100DB00080939D010E94E50419C086E060E00E94D6
:100DC000A10D10929D010E94E50484EB90E060E08B
:100DD00071E00E94D20A0AC08FED91E00E94A9053D
:100DE00005C080919F01815080939F01DF91CF9139
:100DF0001F910F91089510929F0180919C0188236B
:100E000079F08CEB91E06EED71E00E94480A882346
:100E100039F080919F018F5F80939F010E94860629
:100E20008EE495E00E94060F892B39F00E940005A0
:100E300080919F018F5F80939F0180919E018130FF
:100E400031F480919F01882311F40E94B704089522
:100E500086E061E00E94620D86E060E00E94A10DE4
:100E60008EE495E040E051EE60E070E00E947F0E7D
:100E700088E091E09093BD018093BC0181E2809372
:100E8000BE0188E690E09093C0018093BF018FE39C
:100E90008093C1010895882319F48CB5806202C043
:100EA0008CB58F7D8CBD08959CB5937F982B9CBD90
:100EB00008952CB5382F33702C7F322B3CBD2DB5C7
:100EC00090E0959587959595879581702E7F822BDB
:100ED0008DBD08958AE061E00E94A10D8AE061E085
:100EE0000E94620D8CB580618CBD8CB580648CBD18
:100EF0008DE061E00E94620D8BE061E00E94620D76
:100F00000895EF92FF920F931F93CF93DF937C018D
:100F1000062F81E2489FE001112410E021C0D70193
:100F20001396ED91FC911497EC0FFD1F31964491AF
:100F3000319750E04E5F5F4F80E092E0BF010E942A
:100F4000A50480E092E00E945B09A196882339F411
:100F50008EE495E067E878E00E9482100FC01F5F82
:100F60001017E8F210E0C70161E272E00E94480A3F
:100F70008823C9F380912302843819F021E830E0F6
:100F80000BC090912502892F8150823018F41F5F89
:100F9000011749F7292F30E0C901DF91CF911F9147
:100FA0000F91FF90EF9008951F93CF93DF93EC0183
:100FB0006D81693020F028E830E010E00FC040E09B
:100FC00023C0412F50E093E0440F551F9A95E1F75D
:100FD000CE0168E00E9481079C011F5F6D81862F12
:100FE000869586958695181760F3862F90E0877012
:100FF0009070892B61F06770412F50E083E0440FBF
:10100000551F8A95E1F7CE010E9481079C01C90115
:10101000DF91CF911F910895FC01DB0185E0808372
:101020008FE0818311968C91119783838C918283B9
:1010300013968C911397858312968C9184830895CF
:10104000FC0181E080838EE081830895DC014E5FA6
:101050004C93425085E111968C931197FB0181913D
:1010600012968C9312971396CD01BF0150E00E9407
:10107000AE040895DC014E5F4C9342508DE0119612
:101080008C931197FB01819112968C931297139672
:10109000CD01BF0150E00E94AE040895CF93DF93CD
:1010A000FC01E85FFE4F91918081E950F140981773
:1010B00011F480E015C081E2989FD0011124EB016A
:1010C000AE0FBF1F81E20D9009928150E1F7E85FFA
:1010D000FE4F808190E0019687709070808381E060
:1010E000DF91CF910895DF93CF93CDB7DEB7A1976E
:1010F0000FB6F894DEBF0FBECDBF85E061E00E9461
:10110000620D8AE060E00E94A10D83E492E0BE01DE
:101110006F5F7F4F0E944E08882311F419821A8254
:101120005A815EBD0DB407FEFDCF8EB58093580485
:101130008B818EBD0DB407FEFDCF4EB54093590493
:10114000552349F0252F30E0842F90E08217930734
:1011500014F4452F4150842F403208F08FE1AAE566
:10116000B4E0FE013496282F30E02A0F3B1F08C060
:1011700080818EBD0DB407FEFDCF8EB58D93319667
:10118000A217B307A9F78AE061E00E94A10D81E0F0
:101190006DE07AE040E050E00E94880B83B7816008
:1011A00083BF90914B0380914C03981721F08AE004
:1011B00060E00E94A10D88E594E0A1960FB6F89436
:1011C000DEBF0FBECDBFCF91DF9108950F931F9368
:1011D000CF93DF93DC01AB01EC01C75FDE4F888169
:1011E000282F30E02F5F3F4F89010770107021508A
:1011F0003040FB019181A85FBE4F8C91A850B14057
:10120000801711F480E020C0F90185E0EE0FFF1F88
:101210008A95E1F7E20FF31FEA0FFB1F1082288186
:1012200081E2289F900111242F5F3F4F2A0F3B1F1F
:10123000E92FF0E031964F5F5F4FC901BA01AF016E
:101240000E94AE04088381E0DF91CF911F910F913E
:1012500008950F931F93CF93DF93EC0109818EE4E0
:1012600095E0602F4AE050E00E9425118EE495E061
:1012700060E071E00E94371110E0FE01E10FF11D06
:101280008EE495E0618140E150E00E9425118EE4FA
:1012900095E067E978E00E943F101F5F011768F74B
:1012A0008EE495E066E978E00E948210DF91CF91AC
:1012B0001F910F9108951F93CF93DF93EC018981C4
:1012C000803210F010E017C083E492E0BE010E946B
:1012D000E608182F80915704882349F08EE495E0A2
:1012E00063E071E00E943711CE010E9429098AE073
:1012F00060E00E94A10D812FDF91CF911F91089591
:101300000F931F93CF93DF93EC01F8941091560441
:101310000091550478948DE493E0BE010E944E083C
:101320008823B1F080915704882349F08EE495E03A
:1013300065E071E00E943711CE010E942909812FDA
:1013400090E0019687709070081709F4E99A81E09F
:10135000DF91CF911F910F910895109259040E942F
:101360006A0780E00E944B0785E00E94590780E0F1
:101370000E94540710924B0310924C03A4E4B2E075
:10138000FD0110821182B19683E0EC34F807C9F7B1
:101390001092570410925504109256041C92119604
:1013A0001C921197919683E0AC34B807B9F784E0AA
:1013B00061E00E94620D83E062E00E94620D8AE0BB
:1013C00061E00E94620D84E061E00E94A10D84E072
:1013D00060E00E94A10D84E061E00E94A10D8DE01B
:1013E00060E00E94A10D8BE060E00E94A10D8AE008
:1013F00061E00E94A10D8DE060E00E94A10D6EE110
:1014000070E080E090E00E946E0C81E06DE07AE098
:1014100040E050E00E94880B089583B78E7F83BF21
:101420008091640080718093640081E00E94AB0B26
:101430000E947308FC018181882349F18DE493E0C7
:10144000BF010E94E6088823A9F486E061E00E94BB
:10145000A10D68EE73E080E090E00E946E0C86E0E3
:1014600060E00E94A10D68EE73E080E090E00E94D1
:101470006E0CEBCFF89478948091560490E001962E
:101480008770907020915504281709F4E998089501
:101490000F931F93CF93DF938C01EB01CB010E943D
:1014A0008009282F8A81883829F0893809F18638FF
:1014B00061F511C0DE01F80190E013968C9113974D
:1014C000818B1B968C911B97818F9F5F1196319614
:1014D000983099F71AC0F80180E0118A118E8F5F59
:1014E00031968830D1F7F80111A2878182870DC02B
:1014F0008B819C81F801948783878D819E8196875B
:1015000085878F819885908B8787822FDF91CF91F8
:101510001F910F9108951F93DF93CF93CDB7DEB73F
:1015200065970FB6F894DEBF0FBECDBF582F142FAE
:10153000282F30E0C901880F991F820F931FE09177
:10154000A304F091A404E80FF91F339781819281DD
:101550008230910511F00497D1F41531C0F459830C
:101560009E012E5F3F4FC901412F50E00E94AE0403
:101570008AE794E0BE016F5F7F4F412F0E942608EB
:101580001092A20489E794E00E945B0901C080E008
:1015900065960FB6F894DEBF0FBECDBFCF91DF9139
:1015A0001F9108950F931F93DF93CF9300D000D026
:1015B000CDB7DEB79A8389837C836B830AE714E017
:1015C000C801BE016F5F7F4F0E940C08C8010197E0
:1015D0000E945B090F900F900F900F90CF91DF91B9
:1015E0001F910F9108951F93DF93CF93CDB7DEB76F
:1015F00065970FB6F894DEBF0FBECDBF122F262F12
:1016000030E0C901880F991F820F931FE091A30456
:10161000F091A404E80FF91F339780818130C9F459
:101620001531B8F469839E012E5F3F4FC901BA019D
:10163000412F50E00E94AE048AE794E0BE016F5F44
:101640007F4F412F0E943A0889E794E00E945B098E
:1016500001C080E065960FB6F894DEBF0FBECDBF27
:10166000CF91DF911F9108950F931F930AE714E024
:10167000C8010E942008C80101970E945B091F91C0
:101680000F910895CF93DF93EC01FC01AAE9B4E038
:10169000118A118E1D92319684E0A23AB807C1F7E3
:1016A0001092A5041092A9041092A8041092A60406
:1016B0008FEF8093AA048093AB048093AC041092C4
:1016C000AE041092AD041092B0041092AF041092C8
:1016D000A7041092B1041092B2041092B4041092B4
:1016E000B304888199819093A4048093A3048A8190
:1016F0008093B5048B819C819093B7048093B6044A
:101700008D818093B8040E94AD09DF91CF91089537
:10171000823000F5E82FF0E0EE0FFF1FE754FB4F9B
:1017200071836083882319F08130A1F408C080910F
:1017300069008C7F842B80936900E89A08958091DA
:101740006900440F551F440F551F837F842B8093DE
:101750006900E99A0895823080F4882319F0813075
:1017600021F402C0E89801C0E998E82FF0E0EE0FFC
:10177000FF1FE754FB4F1182108208951F920F92B2
:101780000FB60F9211242F933F934F935F936F9354
:101790007F938F939F93AF93BF93EF93FF9380912A
:1017A000B9049091BA04892B29F0E091B904F09121
:1017B000BA040995FF91EF91BF91AF919F918F91DD
:1017C0007F916F915F914F913F912F910F900FBE3D
:1017D0000F901F9018951F920F920FB60F92112421
:1017E0002F933F934F935F936F937F938F939F9329
:1017F000AF93BF93EF93FF938091BB049091BC0490
:10180000892B29F0E091BB04F091BC040995FF916C
:10181000EF91BF91AF919F918F917F916F915F9168
:101820004F913F912F910F900FBE0F901F901895E1
:101830001F920F920FB60F9211242F933F938F9305
:101840009F93AF93BF938091C1049091C204A091E4
:10185000C304B091C4043091C5040196A11DB11D0B
:10186000232F2D5F2D3720F02D570196A11DB11D7F
:101870002093C5048093C1049093C204A093C30431
:10188000B093C4048091BD049091BE04A091BF04A4
:10189000B091C0040196A11DB11D8093BD04909329
:1018A000BE04A093BF04B093C004BF91AF919F91B9
:1018B0008F913F912F910F900FBE0F901F90189511
:1018C0008FB7F8942091C1043091C2044091C304B1
:1018D0005091C4048FBFB901CA0108959B01AC01A6
:1018E0007FB7F8948091BD049091BE04A091BF048D
:1018F000B091C00466B5A89B05C06F3F19F0019672
:10190000A11DB11D7FBFBA2FA92F982F8827860F41
:10191000911DA11DB11D62E0880F991FAA1FBB1F59
:101920006A95D1F7BC012DC0FFB7F8948091BD0432
:101930009091BE04A091BF04B091C004E6B5A89BED
:1019400005C0EF3F19F00196A11DB11DFFBFBA2FD1
:10195000A92F982F88278E0F911DA11DB11DE2E0A0
:10196000880F991FAA1FBB1FEA95D1F7861B970BFB
:10197000885E9340C8F2215030404040504068514A
:101980007C4F211531054105510571F60895789474
:1019900084B5826084BD84B5816084BD85B5826074
:1019A00085BD85B5816085BDEEE6F0E08081816012
:1019B0008083E1E8F0E01082808182608083808112
:1019C00081608083E0E8F0E0808181608083E1EBEA
:1019D000F0E0808184608083E0EBF0E080818160D2
:1019E0008083EAE7F0E08081846080838081826088
:1019F0008083808181608083808180688083109271
:101A0000C10008951F93CF93DF93182FEB0161E07E
:101A10000E94620D209709F44AC0CF3FD10509F416
:101A200049C0E12FF0E0E052F74F84918330C1F0DC
:101A3000843028F4813051F08230B1F50CC086300A
:101A400019F1873049F1843079F514C084B5806884
:101A500084BDC7BD33C084B5806284BDC8BD2EC0FF
:101A600080918000806880938000D0938900C0932B
:101A7000880024C080918000806280938000D09391
:101A80008B00C0938A001AC08091B0008068809358
:101A9000B000C093B30012C08091B0008062809308
:101AA000B000C093B4000AC0C038D1051CF4812F27
:101AB00060E002C0812F61E00E94A10DDF91CF9113
:101AC0001F910895CF93DF93482F50E0CA018453AC
:101AD000974FFC0134914854574FFA018491882361
:101AE00069F190E0880F991FFC01E656F74FA59128
:101AF000B491FC01EC55F74FC591D491662351F494
:101B00002FB7F8948C91932F909589238C9388818B
:101B100089230BC0623061F42FB7F8948C91932F16
:101B2000909589238C938881832B88832FBF06C04F
:101B30009FB7F8948C91832B8C939FBFDF91CF91AB
:101B40000895482F50E0CA018052974FFC0124911C
:101B5000CA018453974FFC0194914854574FFA019E
:101B60003491332309F440C0222351F1233071F022
:101B7000243028F42130A1F0223011F514C0263091
:101B8000B1F02730C1F02430D9F404C08091800036
:101B90008F7703C0809180008F7D8093800010C07C
:101BA00084B58F7702C084B58F7D84BD09C08091D4
:101BB000B0008F7703C08091B0008F7D8093B0001C
:101BC000E32FF0E0EE0FFF1FEC55F74FA591B49116
:101BD0002FB7F894662321F48C919095892302C045
:101BE0008C91892B8C932FBF089508951F920F928B
:101BF0000FB60F9211242F933F934F938F939F9380
:101C0000EF93FF938091C00082FD1DC04091C600FC
:101C100020910605309107052F5F3F4F2F733070DD
:101C200080910805909109052817390771F0E09116
:101C30000605F0910705EA53FB4F408330930705F3
:101C40002093060502C08091C600FF91EF919F91FD
:101C50008F914F913F912F910F900FBE0F901F903A
:101C60001895E0915A05F0915B05E05CFF4F81917A
:101C7000919120813181821B930B8F739070892BFE
:101C800011F00E94F50D08951F920F920FB60F925A
:101C900011242F933F938F939F93EF93FF93209162
:101CA0004A0530914B0580914C0590914D052817C0
:101CB000390731F48091C1008F7D8093C10014C039
:101CC000E0914C05F0914D05E65FFA4F208180913F
:101CD0004C0590914D0501968F73907090934D0532
:101CE00080934C052093C600FF91EF919F918F91B7
:101CF0003F912F910F900FBE0F901F901895AF92AC
:101D0000BF92DF92EF92FF920F931F93CF93DF93D7
:101D1000EC017A018B01DD24403081EE580780E030
:101D2000680780E0780711F0DD24D39491E0A92EB4
:101D3000B12CEC89FD89DD2069F0C50108A002C045
:101D4000880F991F0A94E2F7808360E079E08DE3C1
:101D500090E005C0108260E874E88EE190E0A80190
:101D600097010E94A91121503040404050405695A3
:101D700047953795279580E12030380720F0DD2002
:101D800011F0DD24D6CFE889F9893083EA89FB890F
:101D9000208319A2EE89FF89408121E030E0C9014A
:101DA0000C8C02C0880F991F0A94E2F7482B4083DD
:101DB000EE89FF894081C9010D8C02C0880F991FEF
:101DC0000A94E2F7482B4083EE89FF894081C901DC
:101DD0000E8C02C0880F991F0A94E2F7482B4083AB
:101DE000EE89FF8980810F8C02C0220F331F0A9475
:101DF000E2F7209528232083DF91CF911F910F9147
:101E0000FF90EF90DF90BF90AF900895DC011C969B
:101E1000ED91FC911D97E05CFF4F21913191808104
:101E20009181281B390B2F733070C9010895DC0193
:101E30001C96ED91FC911D97E05CFF4F2081318154
:101E4000E054F040DF01AE5BBF4F8D919C91119744
:101E50002817390719F42FEF3FEF07C08D919C9198
:101E6000E80FF91F8081282F30E0C9010895DC01B7
:101E70001C96ED91FC911D97E05CFF4F2081318114
:101E8000E054F040DF01AE5BBF4F8D919C91119704
:101E90002817390719F42FEF3FEF10C08D919C914F
:101EA0001197E80FF91F20818D919C911197019650
:101EB0008F73907011969C938E9330E0C9010895B2
:101EC000DC0191968C919197882339F05496ED918D
:101ED000FC915597808186FFF9CF91961C920895C9
:101EE000CF93DF93EC01EE85FF85E05CFF4F20810F
:101EF0003181E054F0402F5F3F4F2F733070DF018E
:101F0000AE5BBF4F8D919C91119728173907D1F384
:101F1000E05CFF4F80819181E054F040E80FF91FB1
:101F20006083EE85FF85E05CFF4F31832083EE897F
:101F3000FF89208181E090E00F8C02C0880F991FFB
:101F40000A94E2F7282B208381E089A3EC89FD899C
:101F500080818064808381E090E0DF91CF9108955B
:101F6000109251051092500588EE93E0A0E0B0E089
:101F70008093520590935305A0935405B093550553
:101F80008FE891E090934F0580934E0586EC94E0A6
:101F900090935B0580935A058AE095E090935D05E8
:101FA00080935C0585EC90E090935F0580935E05DF
:101FB00084EC90E0909361058093600580EC90E064
:101FC000909363058093620581EC90E090936505A2
:101FD0008093640582EC90E090936705809366059A
:101FE00086EC90E0909369058093680584E0809387
:101FF0006A0583E080936B0587E080936C0585E03C
:1020000080936D0581E080936E050895CF93DF93F3
:102010000E94C70C0E942807C1E3DEE00E94FB0675
:102020002097E1F30E94310EF9CFCF92DF92EF9229
:10203000FF920F931F93CF93DF937C016B018A0173
:10204000C0E0D0E00FC0D6016D916D01D701ED91D8
:10205000FC910190F081E02DC7010995C80FD91FAF
:10206000015010400115110571F7CE01DF91CF919C
:102070001F910F91FF90EF90DF90CF900895EF9216
:10208000FF920F931F93CF93DF937C018B01C0E0EE
:10209000D0E0F8010F5F1F4F6491662359F0D7011C
:1020A000ED91FC910190F081E02DC7010995C80FD9
:1020B000D91FEFCFCE01DF91CF911F910F91FF90EC
:1020C000EF900895EF92FF920F931F938C01DC0124
:1020D000ED91FC910190F081E02D6DE009957C017E
:1020E000D801ED91FC910190F081E02DC8016AE0EA
:1020F00009959C012E0D3F1DC9011F910F91FF9065
:10210000EF900895EF92FF920F931F937C010E942E
:102110003F108C01C7010E9462109C01200F311FEB
:10212000C9011F910F91FF90EF900895CF93DF9316
:10213000EC016115710519F420E030E00FC0DB01FE
:102140000D900020E9F71197A61BB70BE881F981E4
:102150000280F381E02DAD0109959C01C901DF9159
:10216000CF9108954F925F927F928F929F92AF92FC
:10217000BF92CF92DF92EF92FF920F931F93DF9364
:10218000CF93CDB7DEB7A1970FB6F894DEBF0FBEE1
:10219000CDBF2C01742ECB01223008F42AE019A205
:1021A00031E2C32ED12CCC0EDD1E822E9924AA241E
:1021B000BB24672D752FA50194010E94A9117901F7
:1021C0008A01C801B701A50194010E948A11472D17
:1021D000461B0894C108D1084A3014F4405D01C080
:1021E000495CF6014083E114F1040105110521F079
:1021F0007E2C5F2DC801DDCFC201B6010E94961072
:10220000A1960FB6F894DEBF0FBECDBFCF91DF9180
:102210001F910F91FF90EF90DF90CF90BF90AF9004
:102220009F908F907F905F904F900895DC012115D3
:10223000310541F4ED91FC910190F081E02D642F86
:10224000099508950E94B2100895EF92FF920F939E
:102250001F939A01E62EFF2400E010E0B801A701C9
:102260000E9416111F910F91FF90EF9008950E9408
:1022700096100895CF93DF93EC010E94600C68875D
:1022800079878A879B87E881F9810680F781E02D2D
:10229000CE0109959C0197FF15C00E94600C28850E
:1022A00039854A855B85621B730B840B950B2C81EA
:1022B0003D814E815F81621773078407950718F38C
:1022C0002FEF3FEFC901DF91CF910895CF92DF92B9
:1022D000EF92FF920F931F93CF93DF936C018B01CB
:1022E0007A01C0E0D0E009C0C6010E943A1197FD12
:1022F00007C0F80181938F012196CE15DF05A0F369
:10230000CE01DF91CF911F910F91FF90EF90DF9061
:10231000CF900895629FD001739FF001829FE00DDE
:10232000F11D649FE00DF11D929FF00D839FF00D54
:10233000749FF00D659FF00D9927729FB00DE11D00
:10234000F91F639FB00DE11DF91FBD01CF011124DD
:102350000895A1E21A2EAA1BBB1BFD010DC0AA1FE6
:10236000BB1FEE1FFF1FA217B307E407F50720F0FE
:10237000A21BB30BE40BF50B661F771F881F991F79
:102380001A9469F760957095809590959B01AC01C2
:10239000BD01CF010895EE0FFF1F0590F491E02DD0
:0623A0000994F894FFCF40
:1023A600203A00430020450001800001020001049C
:1023B6000001080001800001000401020001040080
:1023C6000108000180000100040108000100040169
:1023D600020001040001020001040001080001805E
:1023E600000100040108000180000100040108004A
:1023F60001000401020001040001020001040001C1
:102406000800018000010004010200C012000080E3
:1024160025000040380000004B00008070000012CC
:102426007A00000096000000E10000000000007045
:0C2436000F1510060F370F170F600F0076
:00000001FF
